:0400000025EF7CF07C
:10F80800220E2D6E000E2E6E94EC7DF01F6E200ED3
:0EF818002D6E000E2E6E94EC7DF01F6E120011
:10F82700800F810F820F830F840F890F8A0F8B0F31
:10F837008C0F8D0F920F930F940F950F960F012238
:10F84700320212270EF66EF80EF76E000EF86E00F3
:10F85700EE01F010EE23F00900F5CFEEFFE550E1E1
:10F8670050FAE100EE36F00F0EEE6AE806FDE10011
:10F877000EF86E000119EF7EF02D502E10D8A44718
:10F88700EF7CF049EF7CF04BEF7CF0AFEF7CF03E84
:10F89700C030F02DC0D9FF2EC0DAFFDF500F0B2F7D
:10F8A7006E30502F18F80B2F18306E2DC0D9FF2E41
:10F8B700C0DAFFDF38070B2F6E2F462F462F463053
:10F8C700502F18C70B2F18306E309C2DC0D9FF2E24
:10F8D700C0DAFFDFAE02D0308E01D0309E3DC0319E
:10F8E700F020EE01F02D50D9262E50DA22DF500FEE
:10F8F7000B2F6E31502F18F80B2F18316E20EE0199
:10F90700F02D50D9262E50DA22DF38070B2F6E2F15
:10F91700462F462F4631502F18C70B2F18316E31FF
:10F927009C20EE01F02D50D9262E50DA22DFAE02B0
:10F93700D0318E01D0319E300E246E000E256E0020
:10F947000E266EAFEC7EF0310E246E000E256E0093
:10F957000E266EAFEC7EF012002D502E10D8A4B7F5
:10F96700EF7CF0B9EF7CF0BBEF7CF01FEF7DF04050
:10F97700C030F02DC0D9FF2EC0DAFFDF500F0B2F9C
:10F987006E30502F18F80B2F18306E2DC0D9FF2E60
:10F99700C0DAFFDF38070B2F6E2F462F462F463072
:10F9A700502F18C70B2F18306E309C2DC0D9FF2E43
:10F9B700C0DAFFDFAE02D0308E01D0309E3FC031BB
:10F9C700F020EE01F02D50D9262E50DA22DF500F0D
:10F9D7000B2F6E31502F18F80B2F18316E20EE01B8
:10F9E700F02D50D9262E50DA22DF38070B2F6E2F35
:10F9F700462F462F4631502F18C70B2F18316E311F
:10FA07009C20EE01F02D50D9262E50DA22DFAE02CF
:10FA1700D0318E01D0319E300E246E000E256E003F
:10FA27000E266EAFEC7EF0310E246E000E256E01B1
:10FA37000E266EAFEC7EF01200010E306E010E3115
:10FA47006E2D502E10D8A42BEF7DF02DEF7DF02FCB
:10FA5700EF7DF093EF7DF042C032F02DC0D9FF2E3D
:10FA6700C0DAFFDF500F0B2F6E32502F18F80B2F15
:10FA770018326E2DC0D9FF2EC0DAFFDF38070B2FE3
:10FA87006E2F462F462F4632502F18C70B2F18328E
:10FA97006E329C2DC0D9FF2EC0DAFFDFAE02D03206
:10FAA7008E01D0329E41C033F020EE01F02D50D9A7
:10FAB700262E50DA22DF500F0B2F6E33502F18F8F7
:10FAC7000B2F18336E20EE01F02D50D9262E50DA69
:10FAD70022DF38070B2F6E2F462F462F4633502F26
:10FAE70018C70B2F18336E339C20EE01F02D50D919
:10FAF700262E50DA22DFAE02D0338E01D0339E326B
:10FB07000E246E000E256E010E266EAFEC7EF033CE
:10FB17000E246E000E256E000E266EAFEC7EF012E0
:10FB270000010E306E2D502E10D8A49DEF7DF09F52
:10FB3700EF7DF0A3EF7DF0000E306E17EF7EF044FF
:10FB4700C031F02DC0D9FF2EC0DAFFDF500F0B2FC9
:10FB57006E31502F18F80B2F18316E2DC0D9FF2E8C
:10FB6700C0DAFFDF38070B2F6E2F462F462F46319F
:10FB7700502F18C70B2F18316E319C2DC0D9FF2E6F
:10FB8700C0DAFFDFAE02D0318E01D0319E43C032E2
:10FB9700F020EE01F02D50D9262E50DA22DF500F3B
:10FBA7000B2F6E32502F18F80B2F18326E20EE01E4
:10FBB700F02D50D9262E50DA22DF38070B2F6E2F63
:10FBC700462F462F4632502F18C70B2F18326E324A
:10FBD7009C20EE01F02D50D9262E50DA22DFAE02FE
:10FBE700D0328E01D0329E310E246E000E256E4F1C
:10FBF700EC7FF0320E246E000E256E4FEC7FF03155
:10FC07000E246E000E256E000E31BE010E266EAF5D
:10FC1700EC7EF0320E246E000E256E000E32BE0111
:10FC27000E266EAFEC7EF03050120004EC7CF02212
:10FC37000E2D6E000E2E6E20EC7DF01A0E356E5EC8
:10FC47000E346E6E0EE82EFED7342EFCD7352EFA04
:10FC5700D700D0200E2D6E000E2E6E20EC7DF01AF0
:10FC67000E356E5E0E346E6E0EE82EFED7342EFC09
:10FC7700D7352EFAD700D0220E2D6E000E2E6E40ED
:10FC8700EC7CF01A0E356E5E0E346E6E0EE82EFEAC
:10FC9700D7342EFCD7352EFAD700D0200E2D6E0084
:10FCA7000E2E6E40EC7CF01A0E356E5E0E346E6EC4
:10FCB7000EE82EFED7342EFCD7352EFAD700D022E9
:10FCC7000E2D6E000E2E6EB0EC7CF01A0E356E5EA9
:10FCD7000E346E6E0EE82EFED7342EFCD7352EFA74
:10FCE700D700D0200E2D6E000E2E6EB0EC7CF01AD1
:10FCF7000E356E5E0E346E6E0EE82EFED7342EFC79
:10FD0700D7352EFAD700D0220E2D6E000E2E6E405C
:10FD1700EC7CF01A0E356E5E0E346E6E0EE82EFE1B
:10FD2700D7342EFCD7352EFAD700D0200E2D6E00F3
:10FD37000E2E6E40EC7CF01A0E356E5E0E346E6E33
:10FD47000EE82EFED7342EFCD7352EFAD700D01B5F
:10FD5700EF7EF000EF00F024502510D8B4B6EF7E08
:10FD6700F0B8EF7EF0D8EF7EF024C0D9FF25C0DAD7
:10FD7700FFDF50070B276E050E2760C5EF7EF0C724
:10FD8700EF7EF0D8EF7EF024C0D9FF25C0DAFFDF81
:10FD970030E832E832070B276E070E2764D6EF7E6E
:10FDA700F0D8EF7EF039EF7FF04EEF7FF024C0D927
:10FDB700FF25C0DAFFDF30E832E832070B276E0194
:10FDC7000E286E272AEAEF7EF0D8902836272EE8ED
:10FDD700EF7EF02850FF0A296E24C0D9FF25C0DA2C
:10FDE700FFDF50070B2A6E2A50020D0B0EF324D9A2
:10FDF7006E000EF420DA6EDECF2BF0DDCF2CF02B69
:10FE0700C0D9FF2CC0DAFF2950DF164EEF7FF02450
:10FE1700C0D9FF25C0DAFFDF30E832E832070B2709
:10FE27006E010E286E272A1BEF7FF0D89028362701
:10FE37002E19EF7FF024C0D9FF25C0DAFFDF500766
:10FE47000B296E2950020D0B0EF324D96E000EF408
:10FE570020DA6EDECF2AF0DDCF2BF02AC0D9FF2BB8
:10FE6700C0DAFF2850DF124EEF7FF02650276E28AA
:10FE77006A2850000AD8B443EF7FF0D8EF7EF02706
:10FE870050000AD8B4DAEF7EF0010AD8B40BEF7F3E
:10FE9700F0D8EF7EF01200010E2C6E24502510D8FA
:10FEA700B458EF7FF05AEF7FF07AEF7FF024C0D994
:10FEB700FF25C0DAFFDF50070B266E050E266067A9
:10FEC700EF7FF069EF7FF07AEF7FF024C0D9FF254D
:10FED700C0DAFFDF30E832E832070B266E070E265E
:10FEE7006478EF7FF07AEF7FF0DDEF7FF0000E2C84
:10FEF7006EFEEF7FF024C0D9FF25C0DAFFDF30E8C0
:10FF070032E832070B266E010E276E262A8EEF7F08
:10FF1700F0D8902736262E8CEF7FF02750FF0A283F
:10FF27006E24C0D9FF25C0DAFFDF50070B296E29E1
:10FF370050020D150EF324D96E000EF420DA6EDE92
:10FF4700CF2AF0DDCF2BF02AC0D9FF2BC0DAFF284C
:10FF570050DF16FEEF7FF024C0D9FF25C0DAFFDFA0
:10FF670030E832E832070B266E010E276E262ABFCD
:10FF7700EF7FF0D8902736262EBDEF7FF024C0D92B
:10FF8700FF25C0DAFFDF50070B286E2850020D153A
:10FF97000EF324D96E000EF420DA6EDECF29F0DDE1
:10FFA700CF2AF029C0D9FF2AC0DAFF2750DF12FE77
:10FFB700EF7FF024C0D9FF25C0DAFFDFBCE6EF7F73
:10FFC700F0E9EF7FF0010EEAEF7FF0000E266E27D3
:10FFD7006A2750000AD8B4F3EF7FF07AEF7FF02654
:10FFE70050000AD8B47EEF7FF0010AD8B4AFEF7F94
:09FFF700F07AEF7FF02C501200AB
:020000040020DA
:08000000FFFFFFFFFFFFFFFF00
:020000040030CA
:0E000000FF02091EFF8381FF0FC00FE00F40BB
:00000001FF
